:0200000407FCF7
:10000000F8A2FC074901FC075101FC076901FC0744
:1000100000000000000000000000000000000000E0
:100020000000000000000000000000008101FC074B
:1000300000000000000000008301FC07158EFC0793
:100040008701FC078701FC079D8DFC07A18DFC073C
:10005000818CFC078701FC07F98EFC078701FC07F0
:100060008701FC078701FC078701FC078701FC0764
:100070008701FC078701FC078701FC078701FC0754
:100080008701FC078701FC078701FC077586FC07D1
:100090008701FC078701FC078701FC078701FC0734
:1000A0000348854600F078F800480047F384FC07D1
:1000B000F8A2FC0710B51F480189C908C9000181D1
:1000C000018A1D4CC90713D08088002810D11B4815
:1000D0001949428820310A8182888A80C2880A8030
:1000E000618AFF22813200889143C001014361820D
:1000F0001349062008800F2000F00EF8012000F0C0
:100100000BF8002000F008F8608904218843608122
:100110000020208062B610BD002809DBC106C90E90
:100120000120884007490860BFF34F8FBFF36F8FEE
:10013000704700000003005000000050DCBFFC07C7
:100140000034005080E100E00F4880470F4800472E
:1001500004207146084203D0EFF309800C49084798
:10016000EFF308800A49084704207146084203D08B
:10017000EFF3098007490847EFF30880054908476E
:10018000FEE7FEE7FEE7FEE7B500FC07A100FC077F
:100190000580FC070180FC07064C0125064E05E0A2
:1001A000E36807CC2B430C3C98471034B442F7D398
:1001B000FFF77AFFDC01FC071C02FC0702E008C81D
:1001C000121F08C1002AFAD170477047002001E0D1
:1001D00001C1121F002AFBD1704700001C02FC075E
:1001E0000080FC07C41A0000BC01FC07E01CFC07EF
:1001F00000BAFC07D8050000BC01FC07B822FC07C8
:10020000D8BFFC070C000000BC01FC07E01CFC0789
:10021000C49AFC071C090000CC01FC07FEE70000A3
:1002200005200007018A042211430182018940222E
:1002300011430181054A01211160418A0122890887
:100240008900D203114341827047000080E200E040
:10025000F0B5002099B014900446139016901590B4
:1002600007460646054617901F2168460C220903DB
:1002700000F0C9F868460078702879D1684640785F
:100280005228FAD1019811900298109068464022A5
:100290001290119900F0B7F868468078AA2811D119
:1002A0006846007870280DD168464078512809D1F9
:1002B000019814906846C07816900298179008A884
:1002C0000678012440221099129800F09CF86846A4
:1002D0008078AA2810D16846007870280CD168462A
:1002E0004078512808D16846C0781590019813903D
:1002F00008A80578029FA41C032C04D0012C0ED062
:10030000022C36D061E016991598FF2901D10028FA
:100310002FD0FF2801D1002901D0814229D3119982
:100320005D484031149A00F06EF8002E02D0149807
:1003300000F06CFA584E00203146149A00F054FA3E
:100340001799884241D0032C3FD110993046403153
:10035000139A00F058F8002D02D0139800F056FAC6
:1003600031460020139A00F03FFAB84229D12CE020
:1003700027E0109948484031139A00F044F8002DC6
:1003800002D0139800F042FA434D00202946139AF8
:1003900000F02AFAB84218D0032C16D11199284639
:1003A0004031149A00F02FF8002E02D0149800F07B
:1003B0002DFA29460020149A00F016FA179988425F
:1003C00003D00020C04319B0F0BD0020FBE710B5FA
:1003D0008AB006A9684600F01CF8684606AC09A970
:1003E00000F0E7F80A3002D1204600F06BF8012057
:1003F0002A49C0040860BFF34F8FBFF36F8FFFF728
:1004000027FF0AB010BD08B56B4600F0DEF80020EB
:1004100008BDF8B501270E46044603221D2312022B
:1004200039460020009700F031F9002503221C23F3
:10043000120204212846009500F028F90322002129
:100440001B2312020846009500F020F900221A230F
:1004500003211046009500F019F92078F121B843E6
:10046000084020707D20800160802079C721C0086D
:10047000C0000840083020716571A7710120A07587
:10048000A560E5602561257565754004B06031465D
:10049000204600F028F8F8BD0000FC0780E100E0ED
:1004A00010B5012000F0E8FB0520000200F0A7FCD9
:1004B00080B210BD10B5FFF7F3FFC00701D00D20CB
:1004C000C04310BD0DC862490DC1704710B500F0A2
:1004D00043FC00F04DFC002000F0CEFBAB2000F010
:1004E0008EFC002010BD70B50C000AD000F0E8FBB7
:1004F000FFF7ECFF050003D12046FFF7E3FF284696
:1005000070BD0620C04370BD10B50446FFF7D2FF92
:1005100000281ED100F0B0FB00F01EFC9F2000F070
:100520003AFC002000F037FC0006000A20600020A2
:1005300000F031FC00062168000C08432060002018
:1005400000F029FC2168C0B20843206000F010FCD4
:10055000002010BD70B5A2B0064684223D4901A816
:1005600001F020F86846FFF7CFFF002815D100986A
:10057000002814D0411C12D00B21002401AD0C2204
:1005800062435219526882420CD10C2044436019D4
:10059000FFF798FF285D3070002022B070BD0A2060
:1005A000C043FAE7641CE4B28C42E8D30920C0439C
:1005B000F3E710B50C4600F083FBFFF787FF002838
:1005C00002D12046FFF7C6FF10BDF8B51D461746FD
:1005D0000C460646FFF76EFF002836D11C48391935
:1005E0008068814202D9001B286000E02F60022051
:1005F00000F042FB00F0B0FB03200006204300F0B7
:10060000CAFB002000F038FB134C002708E0022250
:100610002146304600F0B7FB00F07BFA36197F1C0C
:100620002146286800F094FFB842F0D82146286897
:1006300000F08EFF002905D00222304600F0A3FB17
:1006400000F067FA00F094FB0020F8BD704700004E
:10065000C49AFC07C893FC07FFFF0000704710B561
:10066000164C40010019490008181A43C28010BDF9
:10067000124A4001801801228A40828070470F4A46
:100680004001801801228A404280704770B50646BA
:100690000498144600280D46304602D0FFF7EFFFBD
:1006A00001E0FFF7E5FF224629463046FFF7D7FF76
:1006B00070BD0349002008807047000000300050E2
:1006C00040000050704743490870704738B5012515
:1006D00000236D0200902A4601211846FFF7D6FF3D
:1006E000002423462A46042120460094FFF7CEFF2B
:1006F00000232A46194618460094FFF7C7FF002337
:100700002A46032118460094FFF7C0FF38BD08B5FC
:10071000314D6888012108436880FF2028802F4FD1
:1007200008267E8000F03FFE05242407FFF74FFED9
:10073000002846D1C82028807E8000F084FA01205D
:10074000FFF7C4FFFFF7B5FF00230122520219464D
:100750001846FFF784FF0220401C2828FCDB2049B4
:10076000002008801B480078002809D02088000756
:10077000810F608AFF2281329043C9010843608261
:10078000184800684001C00D10D0618A6846018099
:100790000088810889006846891C01800188012041
:1007A000C00301436846018000886082608A694610
:1007B000088008880121C903084369460880088821
:1007C000608200F040FA0020FFF780FFFFF73EFF55
:1007D000ACE70000D8BFFC070031005000330050E8
:1007E000000300500000FC0710B5C043064B07E0B3
:1007F0000C7844402406A40D1C59000A6040491C92
:10080000521EF5D2C04310BD4C94FC0710B5094AE6
:100810000446114600231039074803F0FFF9064843
:1008200003F090FA054923460A46034803F0BEFB4D
:1008300010BD00007A9AFC07D09AFC070000FC0764
:1008400081894908490081818189082291438181F8
:10085000704710B50C46034601207949C004086072
:10086000BFF34F8FBFF36F8F002A02D01846FFF7F8
:10087000E7FF58083821734A08401358002B03D06B
:100880008018406821469847132000F0CFF810BD2B
:1008900070B56D4E7488002520E06B4928018039C1
:1008A0004018E10717D08189090609D40189491C3C
:1008B0008AB24189491C89B28A4201D1012200E0F1
:1008C000002241064B0F01219940B1800189491C4A
:1008D00089B2FFF7BEFF6D1CEDB26408002C01D099
:1008E000042DDAD370BD70B54B79CA799C07D20755
:1008F000E40F920C2403DB0722431B0D1A430B79F0
:100900001C09240222431C07E40FE40122439C0734
:10091000E40FA40122435C07E40F6401DB072243D8
:10092000DB0E1A430B785C07E40FE4009B072243BD
:100930005B0F1A4382818D790F2D26D0434AF02315
:100940008418414A002C06D0102C04D0202C2BD027
:10095000302C1AD128E0EFF31084012686F310889A
:1009600016883606360FAE4203D115889D431D43C7
:1009700015808B7915882D092D011D43158028E0E0
:10098000002200E0012282F310888A680280120CA3
:100990004280CA688280120CC2800A8A521E42813A
:1009A0004A88002A19D117E0EFF31084012686F354
:1009B000108816883607360FAE4204D116880F25E8
:1009C000AE432E4316808D7916889E432B011E431D
:1009D0001680002CD6D1D3E70A8A521E0281400825
:1009E00038221040174A4B691350896980184160BA
:1009F000174801680902090AC20611430160132061
:100A000000F014F870BD4008382318400D4B195001
:100A1000C01842607047828908239A43C9000A437C
:100A2000828181890122114381817047002806DB80
:100A3000C106C90E0120884001498039086070470D
:100A400080E100E0F8A2FC078036005000CAFFAF4A
:100A500010E400E0FE4A08461178C90703D1FD49B9
:100A60000B8BDB0BFCD19268002A00D0104770473B
:100A7000FFB5F74C944622780346D206A06981B0B0
:100A8000120F01D0012600E0002685890627BD430C
:100A900072001543858103801A0C4280491E018132
:100AA000418100226146FFF7AEFFA0690499FFF77C
:100AB000B2FFE8490888082290431043088005B037
:100AC000F0BDFFB5E24C944622780346D206606939
:100AD00081B0120F01D0012600E00026858906278B
:100AE000BD4372001543858183801A0CC280491E64
:100AF0000181418100226146FFF785FF6069049909
:100B0000FFF789FFD34908881022904310430880DB
:100B1000D5E7CF4840698189C907FCD17047F8B54E
:100B2000CC4C864623880D46F4465B095B01238046
:100B3000268802239E431E432680268804239E4344
:100B40001E432680C24E3178C9060B0F022A19D1E6
:100B5000022B17D0002100910123BF4A2946FFF73D
:100B6000B0FFB069818940229143818100231A46F8
:100B700029466846FFF77CFF218801208143014315
:100B800021802FE0278801229743174327800022E6
:100B900022E0B04C268B760BF607F60FFAD1AD4E5D
:100BA0000027203637813780268B360BF607F60F65
:100BB000FAD10E0F18D0A68B012B19D067463E60D4
:100BC000A44F20373F8964463F04BE196746241D61
:100BD000A4463E60521C92B2AA42DAD39D48018BD1
:100BE000C90BFCD10020F8BDA68B0670401CF1E7B4
:100BF00074462680A41CA646ECE710B57D2212029E
:100C0000944C904201D17F2005E04100104600F055
:100C10009FFC401EC0B22189C909C901014321813D
:100C200010BDEFF31080012181F310880521090721
:100C30008A8801239B021A438A80002800D0012061
:100C400080F310887047EFF31080012181F3108842
:100C5000052109078A8801239B029A438A8000287C
:100C600000D0012080F3108870477A498A88920862
:100C7000920002438A80704730B5012475497C2375
:100C8000734A002803D0012807D002280BD08D8892
:100C90009D431C358D8014740AE08C889C433C3441
:100CA0008C80022103E08C881C438C800421117409
:100CB0001178E12300071940C00E0143117030BDC7
:100CC00070B50446FFF7ADFF624D202028802079E3
:100CD0004007400FFFF7D0FF20780007400FFFF7D5
:100CE000C4FF2078C207A88880218843120E1043D1
:100CF000A880574E22783078D20740084000D20FA3
:100D0000104330700022AA812A890A432A8121785F
:100D1000C90712D12179C0068906490FC00E4901C1
:100D2000084330706088FFF768FFA07DC1072888FE
:100D300040229043490E08432880A0687060E06814
:100D4000B0602069F060204600F065F82888202116
:100D500088432880002070BD3E49088820229043A7
:100D600008803B483B490078400920318880704723
:100D70003849002020318880364908882022904355
:100D8000104308807047324B1B78DB0702D00020ED
:100D9000C0437047C3E670B52E4900230A88520944
:100DA00052010A800A880224A24322430A800A8848
:100DB0000424A24322430A800C8801229443144352
:100DC0000C80234A1278D506224A2C0F2032022C9E
:100DD00001D3060C16811080088B000BC007C00FD2
:100DE000FAD1012C01D910890304280F888B04D073
:100DF000C0180A8BD20BFCD170BDC0B2F9E700B5A8
:100E00000346FFF7A9FF1846FFF7C5FF0346FFF7A4
:100E1000AFFF184600BD70B50446007D88B0C0071E
:100E200032D00E4E0A4D1C220D4968466E6100F00C
:100E3000B9FB69460879617D0007000F0901084385
:100E4000694608713046FFF74EFD207DC00709E076
:100E500018A3FC07001200503988FC072036005008
:100E60008C9AFC0713D00B486A46A86111790222BC
:100E70001143FB2211406A461171074903916946EB
:100E8000FFF731FD08B070BD024E303ECAE70148A1
:100E90002038E9E7303600502012005010B50A48DB
:100EA00080890A49C96A002901D0884710BD0420F9
:100EB00000F001F810BD002805DBC106C90E0120B5
:100EC000884003490860704720130050C49CFC0709
:100ED00080E200E0534930B4884201D0012100E0B3
:100EE0000021514A4901891808E0838ADB07DB0F9A
:100EF00012D00388541C8D68CC81AB54CA898B896D
:100F00009A42F2D382885208520082808A69002A6B
:100F100002D0C88930BC104730BC7047F8B5414D8D
:100F2000414E044620890007000F062826D009DC20
:100F3000012840D002281DD00428F3D12046FFF715
:100F4000C9FFEFE7072828D00C28EBD1AC4201D02D
:100F5000012000E00020400187192046FFF7BAFF7A
:100F6000A18849084900A180B9690029DAD0F88927
:100F70008847D7E7204600F023F8D3E72046AC4265
:100F800001D0012100E00021490189190A69002AE4
:100F9000C8D0818A9E2319400BE02046AC4201D084
:100FA000012100E00021490189190A69002AB9D00C
:100FB00001219047B6E7F8BD1A48AFE71B48ADE7F7
:100FC000184930B4884201D0012100E00021164ABE
:100FD000490189180EE003891B069B0F032B1BD0C8
:100FE000838A9B06DB0F002B96D0531C0C68CB80AA
:100FF000A25C0280CA888B889A42ECD38288022342
:101000009A438280828880239A4382804A69002A98
:1010100082D0888830BC10477C231B5A9B07DB0F8B
:10102000E1E779E70010005034A3FC0700110050FD
:1010300002480068002800D00047704774A3FC07EE
:1010400031498A8A03235B029A43C3085B021A432D
:101050008A828A8A0723DB0240079A43800C024374
:101060008A822948403001880122114301802648A4
:10107000203841894907FCD570472348818A808AF6
:101080004905890F8004400FC900081870471E49A0
:101090008A8A03235B029A43C3085B021A438A824B
:1010A0008A8A0723DB0240079A43800C02438A8224
:1010B000704710B50446144820384089C00502D452
:1010C0000120C04310BD03F014F8002806D0FFF73C
:1010D000D4FFA04202D90020C04310BD0A48408A74
:1010E000C00408D409480088000704D4082C02D2A0
:1010F0000420C04310BD0648012104704170204601
:10110000FFF79EFF002010BD40000050200300505C
:10111000D9BFFC0704490120C881044800680028A1
:1011200000D0004770470000001500507CA3FC076A
:10113000F0B5804C89B000202076607603900120C5
:10114000FFF7C1FA7C4800697C49884202D0C81781
:1011500009B0F0BD784F0425403FE819016D0191B9
:10116000090F092910D0012201989207904272D3E9
:10117000734A90426FD87349083588427AD1E8198A
:10118000C16C7148418099E0019A01991204C9B279
:10119000160E11292FD007DC0B0000F015FA086895
:1011A00068686868680D1C6812390B0000F00CFA5A
:1011B000063445555F585D5F207EB200C1005D4832
:1011C000403808185C491431691800F0EBF9207EAA
:1011D000801920764BE0607EB200C100554840384F
:1011E0000818554910301431691800F0DBF9607E99
:1011F000801960763BE0416D89B20491406D000C2E
:1012000001460290049800F086F8A08002990498A4
:1012100000F089F8E0802AE0416D89B20491406DC8
:10122000000C01460290049800F075F820810299A4
:10123000049800F078F8608119E0039806A980000E
:1012400040183D49B2001431691800F0ABF9039819
:10125000801903900BE027E00CE0406D608206E00F
:10126000416D34484038016401E0406DA082B00017
:10127000451946E033492639884203D1E819C06C44
:10128000E0821BE02F49091F884204D1E819C06C95
:101290002D49888012E02B49083988420ED1E8197F
:1012A000C06C2949C88009E0072927D0082928D01F
:1012B0000A2926D0062924D0401C06D01E4810300A
:1012C00029182248814200D247E70698A081079852
:1012D000050C86B22946304600F01DF8E08129460B
:1012E000304600F020F82082207E40082076607E84
:1012F00040086076A08A002805D007E00020FFF7AC
:10130000E2F92D1DDAE77D20C000A08200201FE752
:101310000848C08A7047081A0104890C40180C4913
:10132000401800B27047C2008018401A0004C01470
:1013300070470000C0A3FC07C07EF807A5A5A5A5BF
:101340004C42005028000050DCBFFC07C07FF8076B
:101350000100FFFF08B57149088071498A88520869
:1013600052008A80002200920099491C00911429A1
:10137000FADB052109074B899B089B005B1C4B810D
:101380004B895B06FCD54880E120C0000092521CCE
:1013900000928242FBDB48898008800048814889AE
:1013A0000006FCD508BDF8B55E4808240480FFF7A8
:1013B00055F95D4DA988684601800088C046C04641
:1013C000684600880426B0433ED00020A8805648D6
:1013D000203001880F22920211430180504A2032AE
:1013E000518A214351824E4960310B880625AB4317
:1013F0000B800588CB011D430580558A9D4355828E
:10140000938A0E25AB439B1D9382454B5D89EF0567
:10141000464D0F881DD5AF4315017D190D800D88F0
:101420000F022D052D0DED190D8005882543058032
:101430000488B44304800C88640864000C8001882C
:101440004024A143018020E0288A400840002882EF
:10145000BDE7AF4303256D027D190D800D880F2771
:101460003F033D430D800588A54305800488B443B0
:101470000480958A03246402A54395820C88012583
:101480002C430C8059894907FCD50188032421434A
:101490000180518A6024A143203151828188A14377
:1014A0002031818005242407E08AC02188438030D0
:1014B000E082188A000A00021882188B1C218843D7
:1014C0000830188302F020FE022002F0ECFD184DD7
:1014D0002869C0B2AA2817D0012021880C22914384
:1014E000800001432180FFF7EDF8FFF721FEFFF7B1
:1014F0000FFF00280AD0FFF70BFFFFF72BFF02F0CA
:1015000033FE00F017F8F8BD0320E6E72869C0B203
:10151000AA2801D06E20F0E78020EEE7DCA3FC07CC
:10152000200000500033005000030050000F000066
:10153000C07FF80770B5054C012525801B20FFF7FB
:10154000B8FDA089A8432843A08170BD00030050C6
:1015500030B50B46014600202022012409E00D464B
:10156000D5409D4205D31D469540491B25469540D3
:1015700040191546521E002DF1DC30BD70B5002417
:101580002546002801DA01244042002901DA01251C
:101590004942FFF7DDFFAC4200D04042002C00D0B2
:1015A000494270BD03460B439B0703D009E008C9BD
:1015B000121F08C0042AFAD203E00B780370401C03
:1015C000491C521EF9D2704730B47446641E257807
:1015D000641CAB4200D21D46635D5B00E31830BC67
:1015E00018470000010000001130EF000000020069
:1015F000020000001230EF000000040003000000B1
:1016000000421F0000000200040000001120C20080
:1016100000000200050000001128C20000000200C6
:10162000060000001228C200000004000F000000A5
:101630001160850000000200120000001264C80062
:10164000000004001300000001431F00000004001C
:101650001400000001111F0000000400150000002C
:101660000C441F00000008000000000096300777BF
:101670002C610EEEBA51099919C46D078FF46A7086
:1016800035A563E9A395649E3288DB0EA4B8DC79A6
:101690001EE9D5E088D9D2972B4CB609BD7CB17E26
:1016A000072DB8E7911DBF906410B71DF220B06AF6
:1016B0004871B9F3DE41BE847DD4DA1AEBE4DD6D06
:1016C00051B5D4F4C785D38356986C13C0A86B6406
:1016D0007AF962FDECC9658A4F5C0114D96C066326
:1016E000633D0FFAF50D088DC8206E3B5E10694C06
:1016F000E44160D5727167A2D1E4033C47D4044B46
:10170000FD850DD26BB50AA5FAA8B5356C98B24225
:10171000D6C9BBDB40F9BCACE36CD832755CDF45A5
:10172000CF0DD6DC593DD1ABAC30D9263A00DE51D5
:101730008051D7C81661D0BFB5F4B42123C4B356C5
:101740009995BACF0FA5BDB89EB802280888055F45
:10175000B2D90CC624E90BB1877C6F2F114C6858A5
:10176000AB1D61C13D2D66B69041DC760671DB0193
:10177000BC20D2982A10D5EF8985B1711FB5B60665
:10178000A5E4BF9F33D4B8E8A2C9077834F9000FA5
:101790008EA8099618980EE1BB0D6A7F2D3D6D0845
:1017A000976C6491015C63E6F4516B6B62616C1C35
:1017B000D83065854E0062F2ED95066C7BA5011B65
:1017C000C1F4088257C40FF5C6D9B06550E9B71205
:1017D000EAB8BE8B7C88B9FCDF1DDD62492DDA15C5
:1017E000F37CD38C654CD4FB5861B24DCE51B53AE5
:1017F0007400BCA3E230BBD441A5DF4AD795D83DE5
:101800006DC4D1A4FBF4D6D36AE96943FCD96E3424
:10181000468867ADD0B860DA732D0444E51D033304
:101820005F4C0AAAC97C0DDD3C710550AA41022714
:1018300010100BBE86200CC925B56857B3856F20E4
:1018400009D466B99FE461CE0EF9DE5E98C9D92944
:101850002298D0B0B4A8D7C7173DB359810DB42E84
:101860003B5CBDB7AD6CBAC02083B8EDB6B3BF9AD0
:101870000CE2B6039AD2B1743947D5EAAF77D29D5C
:101880001526DB048316DC73120B63E3843B64943C
:101890003E6A6D0DA85A6A7A0BCF0EE49DFF09933C
:1018A00027AE000AB19E077D44930FF0D2A30887AC
:1018B00068F2011EFEC206695D5762F7CB6765805C
:1018C00071366C19E7066B6E761BD4FEE02BD3895C
:1018D0005A7ADA10CC4ADD676FDFB9F9F9EFBE8EBC
:1018E00043BEB717D58EB060E8A3D6D67E93D1A1FC
:1018F000C4C2D83852F2DF4FF167BBD16757BCA6DC
:10190000DD06B53F4B36B248DA2B0DD84C1B0AAF7B
:10191000F64A0336607A0441C3EF60DF55DF67A8FB
:10192000EF8E6E3179BE69468CB361CB1A8366BC8B
:10193000A0D26F2536E2685295770CCC03470BBBDB
:10194000B91602222F260555BE3BBAC5280BBDB2DB
:10195000925AB42B046AB35CA7FFD7C231CFD0B57B
:101960008B9ED92C1DAEDE5BB0C2649B26F263EC6D
:101970009CA36A750A936D02A906099C3F360EEB7B
:101980008567077213570005824ABF95147AB8E23B
:10199000AE2BB17B381BB60C9B8ED2920DBED5E51B
:1019A000B7EFDC7C21DFDB0BD4D2D38642E2D4F16B
:1019B000F8B3DD686E83DA1FCD16BE815B26B9F6FB
:1019C000E177B06F7747B718E65A0888706A0FFF5B
:1019D000CA3B06665C0B0111FF9E658F69AE62F81B
:1019E000D3FF6B6145CF6C1678E20AA0EED20DD71B
:1019F0005483044EC2B30339612667A7F71660D03B
:101A00004D476949DB776E3E4A6AD1AEDC5AD6D97A
:101A1000660BDF40F03BD83753AEBCA9C59EBBDE9A
:101A20007FCFB247E9FFB5301CF2BDBD8AC2BACA4A
:101A30003093B353A6A3B4240536D0BA9306D7CDBA
:101A40002957DE54BF67D9232E7A66B3B84A61C4DA
:101A5000021B685D942B6F2A37BE0BB4A18E0CC39A
:101A60001BDF055A8DEF022D637C777BF26B6FC510
:101A70003001672BFED7AB76CA82C97DFA5947F091
:101A8000ADD4A2AF9CA472C0B7FD9326363FF7CC6D
:101A900034A5E5F171D8311504C723C31896059A0A
:101AA000071280E2EB27B27509832C1A1B6E5AA02D
:101AB000523BD6B329E32F8453D100ED20FCB15B18
:101AC0006ACBBE394A4C58CFD0EFAAFB434D338581
:101AD00045F9027F503C9FA851A3408F929D38F555
:101AE000BCB6DA2110FFF3D2CD0C13EC5F9744178C
:101AF000C4A77E3D645D197360814FDC222A908803
:101B000046EEB814DE5E0BDBE0323A0A4906245C8E
:101B1000C2D3AC629195E479E7C8376D8DD54EA9F3
:101B20006C56F4EA657AAE08BA78252E1CA6B4C6BF
:101B3000E8DD741F4BBD8B8A703EB5664803F60E18
:101B4000613557B986C11D9EE1F8981169D98E9407
:101B50009B1E87E9CE5528DF8CA1890DBFE6426820
:101B600041992D0FB054BB1652096AD53036A538AD
:101B7000BF40A39E81F3D7FB7CE339829B2FFF8775
:101B8000348E4344C4DEE9CB547B9432A6C2233D59
:101B9000EE4C950B42FAC34E082EA16628D924B20A
:101BA000765BA2496D8BD12572F8F664866898162B
:101BB000D4A45CCC5D65B6926C704850FDEDB9DA8A
:101BC0005E154657A78D9D8490D8AB008CBCD30A78
:101BD000F7E45805B8B34506D02C1E8FCA3F0F0254
:101BE000C1AFBD0301138A6B3A9111414F67DCEA23
:101BF00097F2CFCEF0B4E67396AC7422E7AD35859C
:101C0000E2F937E81C75DF6E47F11A711D29C589A5
:101C10006FB7620EAA18BE1BFC563E4BC6D2792087
:101C20009ADBC0FE78CD5AF41FDDA8338807C73190
:101C3000B11210592780EC5F60517FA919B54A0D88
:101C40002DE57A9F93C99CEFA0E03B4DAE2AF5B0FD
:101C5000C8EBBB3C83539961172B047EBA77D62619
:101C6000E169146355210C7D0102040810204080B5
:101C70001B366CD8AB4D9A2F5EBC63C697356AD4C1
:101C8000B37DFAEFC59106A9214036B8A15B512E6C
:101C900003D5341200063DAFBA429D9EB430B42243
:101CA000DA802C9FAC410000040000000500000019
:101CB0001C120050000000000000000000000000A6
:101CC0000000000001009909030099090700990923
:101CD0000F0099091F1099092F2099095F5199093F
:101CE000FFB583B0002B4AD0012B7DD10E200825F3
:101CF000039A108003984580039F00203F1D002D0C
:101D000027DD0B7884001A464B78801C1B021A438F
:101D10008B781B041A43CB781B061A4312BA120A9B
:101D2000CB7812021A433A510B791A464B791B02AF
:101D30001A438B791B041A43CB791B061A4312BA38
:101D4000120ACB7912021A43E31908315A60A842E9
:101D5000D7DBF448009003982E4600888000001DD1
:101D60000190854247DAB0000290C0198038C46FF4
:101D700029463046FDF764FC0B0003D01AE00A2028
:101D80000425B5E7E848E1B2415C0A022104090EE6
:101D9000415C090411432202120E825C12060A43BE
:101DA000210E405C0099104309780C0644400098CD
:101DB000401C0090082D12D1042B10D1DA48E1B25A
:101DC000425C2104090E415C090211432202120EF9
:101DD000825C12040A43210E405C04061443701B0B
:101DE00080003858604000E00CE00299761C785082
:101DF00001988642B7DB03981022FF30E530059941
:101E0000FDF732FC07B0F0BDF0B40446008814348E
:101E10008500281F002833DD2D1F2068C349C44BCF
:101E200002460A40C609DF433E40921BC14E4100B4
:101E3000194032405140FA010E461640F709F61B90
:101E4000BC4F4A001A403E407240B84E5700164000
:101E50001F40F309F31AB74E33405F400B467840FA
:101E60005340414018267B40F141594042401023E5
:101E7000DA414A400821C841424004C46D1ECCD119
:101E8000F0BC7047F0B597B00288079212011018A5
:101E900014308446084610300023022408909D0028
:101EA000674602467D1B803A803DD66FEF6F08384B
:101EB0007E40D667966FAD6F9B1C6E409667641E22
:101EC000EDD1604610381390002004900798002848
:101ED0007EDD401E119010A814900422941CA407CB
:101EE000240F0C59944B2402240E1D5D541CD01C4D
:101EF000A4078007240F000F0C5B085896072404E2
:101F0000360F000E240E8E5D185C1C5D9B5D119FCC
:101F1000049EBE4279DA06466E400396370603D524
:101F200076001B277E4000E07600F6B265400996F9
:101F30002F462E0603D57D001B26754000E07D0050
:101F4000EDB2059525465D402E0603D56D001B2696
:101F5000754000E06D00EDB20A951D4645402E0625
:101F600003D56D001B26754000E06D00EDB21595A0
:101F7000059E099D75402E0603D56D001B267540F4
:101F800000E06D00EDB2AC460A9E059D75402E0640
:101F900003D56D001B26754000E06D00EDB266466E
:101FA000AE466E40350603D575001B26754000E031
:101FB0007500EEB23D465D4067467D40099F754025
:101FC0007D4060405840774678407040059F00E073
:101FD0004CE07840039F00045F4063465F400A9BEB
:101FE00077405F40039B634074466340159C734099
:101FF00063402C060443380204431C4393000CA89E
:1020000018188038C4670BE0FFE700062D0428434A
:1020100024022043184394000CABE318803BD8679C
:10202000521E00D05AE70024149B089A0225184635
:102030008038C66F1398A700C01B8038C76F083B55
:102040007E401746803FFE671E68806F083A464014
:10205000A41C16606D1EEAD11398079A10381390CD
:102060000498401C0490904200DA36E717B0F0BDA7
:10207000FFB59BB01B98FF3081300090446E826E9C
:10208000C16E006F25BA00BA1C4616BA0FBA03908B
:10209000103C3BD4102212A81C99FDF7E5FA1C98BD
:1020A00010301C90129800BA16900A90139801BA3A
:1020B000149802910B9101BA1598189100BA0C91DD
:1020C00004900D900AA91B98FFF7DCFE0A980D9961
:1020D000684000BA0E900B98169D704000BA0F90A1
:1020E0000C98029E784000BA10900398189F4140C7
:1020F0000498039008BA119010220EA91D98FDF7BC
:10210000B3FA1D9810301D90103CC3D5039A009C63
:102110003BBA12BAE36631BA226728BAA166606692
:102120001FB0F0BD4C9AFC074C98FC078080808063
:10213000FEFEFEFE1B1B1B1B4C99FC0710B5044644
:10214000FCF7FDFFA04202D22046FDF702F85348FB
:102150000188C90708D101880122114301804F4835
:10216000603841894907FCD510BD38B54C4C05464F
:1021700020684107490F684601700078854219D0F0
:10218000464860384089C0050CD5A81E0300FDF7FD
:102190007DFA05040604040409000B2000E0132066
:1021A000FFF7CCFF2068C008C000284320606068AB
:1021B0004007FCD538BD3B48007870473A4980005D
:1021C00009583748016139494161704710B5EFF34B
:1021D0001084012080F31088304860384089C005A1
:1021E0000BD5304901200870FCF7A9FF3049087071
:1021F0002A480088C007C00F4870052000070188E2
:1022000080221143018026480168C908C900016085
:1022100041684907FCD50320FFF7D0FF002C03D00D
:10222000012080F3108810BD0020FAE770B5EFF3AD
:102230001084012080F31088052109070888802276
:102240001043088016480368DB08DB00036043681E
:102250005B07FCD5174B0361144B4361088890431F
:1022600008800E4860384089C0050ED50D49002011
:102270000F4D08702878FCF76CFF6878002804D1AF
:1022800006480188490849000180002C03D001203C
:1022900080F3108870BD0020FAE700008000005035
:1022A0000000F40778A3FC07A89AFC07090404A41B
:1022B000D9BFFC070F0099090000000000000000D2
:0422C0008E070E0077
:0400000507FC00A153
:00000001FF
